:020000040000FA
:1000000030050020E5020000ED020000EF020000D4
:10001000F1020000F3020000F50200000000000001
:10002000000000000000000000000000F7020000D7
:10003000F902000000000000FB0200004D26000055
:10004000FF0200000103000003030000050300009D
:1000500007030000612700000B0300000D030000F0
:100060000F0300001103000013030000150300003C
:1000700017030000190300001B0300001D0300000C
:100080001F030000210300002303000025030000DC
:1000900027030000290300002B0300002D030000AC
:1000A0002F0300003103000033030000350300007C
:1000B00037030000390300003B0300003D0300004C
:1000C0003F0300004103000043030000450300001C
:1000D00047030000490300004B0300004D030000EC
:1000E0004F030000510300005303000055030000BC
:1000F00057030000590300005B0300005D0300008C
:100100005F0300006103000063030000650300005B
:1001100067030000690300006B0300006D0300002B
:100120006F030000710300007303000075030000FB
:1001300077030000790300007B0300007D030000CB
:100140007F03000081030000830300009D03000083
:1001500000000000000000009F030000A103000059
:10016000A3030000A503000000000000A703000097
:10017000A9030000AB030000AD030000AF030000C3
:10018000B1030000B3030000B5030000B703000093
:10019000B9030000BB030000BD030000BF03000063
:1001A000C1030000C3030000C5030000C703000033
:1001B000C9030000CB030000CD030000CF03000003
:1001C000D1030000D3030000D5030000D7030000D3
:1001D000D9030000DB030000DD030000DF030000A3
:1001E000E1030000E3030000E5030000E703000073
:1001F000E9030000EB030000ED030000EF03000043
:1002000000F002F800F04AF80AA090E8000C8244DE
:100210008344AAF10107DA4501D100F03FF8AFF2BB
:10022000090EBAE80F0013F0010F18BFFB1A43F0D4
:10023000010318470C3400002C340000103A24BF8E
:1002400078C878C1FAD8520724BF30C830C144BF3B
:1002500004680C607047000000230024002500267D
:10026000103A28BF78C1FBD8520728BF30C148BF19
:100270000B607047642900F02181002070471FB592
:1002800002F00AFF00F08CFC04000020002102F0C4
:10029000EDFE401C60601FBD10B510BD00F05BFCA2
:1002A0001146FFF7ECFF02F063FE00F07DFC03B4A3
:1002B000FFF7F2FF03BC00F081FC0000EFF31080B9
:1002C00072B67047EFF310807047EFF3108062B69C
:1002D000704730BF704780F311887047EFF311808B
:1002E000704700004548804745480047FEE7FEE765
:1002F000FEE7FEE7FEE7FEE7FEE7FEE7FEE7FEE7D6
:10030000FEE7FEE7FEE7FEE7FEE7FEE7FEE7FEE7C5
:10031000FEE7FEE7FEE7FEE7FEE7FEE7FEE7FEE7B5
:10032000FEE7FEE7FEE7FEE7FEE7FEE7FEE7FEE7A5
:10033000FEE7FEE7FEE7FEE7FEE7FEE7FEE7FEE795
:10034000FEE7FEE7FEE7FEE7FEE7FEE7FEE7FEE785
:10035000FEE7FEE7FEE7FEE7FEE7FEE7FEE7FEE775
:10036000FEE7FEE7FEE7FEE7FEE7FEE7FEE7FEE765
:10037000FEE7FEE7FEE7FEE7FEE7FEE7FEE7FEE755
:10038000FEE7FEE7FEE7FEE7FEE7FEE7FEE7FEE745
:10039000FEE7FEE7FEE7FEE7FEE7FEE7FEE7FEE735
:1003A000FEE7FEE7FEE7FEE7FEE7FEE7FEE7FEE725
:1003B000FEE7FEE7FEE7FEE7FEE7FEE7FEE7FEE715
:1003C000FEE7FEE7FEE7FEE7FEE7FEE7FEE7FEE705
:1003D000FEE7FEE7FEE7FEE7FEE7FEE7FEE7FEE7F5
:1003E000FEE7FEE7FEE7FEE7FEE7FEE7FEE7FEE7E5
:1003F00004480549034A054B7047000041270000A7
:1004000001020000300300203005002030030020EE
:100410000FB41CB5074B06AA7B44694600900598AB
:1004200000F06FFA0020694600F07EFA1CBC5DF80F
:1004300014FB00000D0500000FB41CB50C0007AA4A
:10044000009001D02044401E074B7B446946019038
:10045000069800F056FA002C03D06946002000F000
:1004600063FA1CBC5DF814FBE504000070B504469B
:1004700085690068C10601D5302600E02026C00746
:1004800007D070BDD4E9012130469047206A401C56
:1004900020626D1EF6D570BD70B504468569007882
:1004A000C00707D170BDD4E9012120209047206A00
:1004B000401C20626D1EF6D570BD00002DE9F04194
:1004C0000646002410687529314616A510D0AFF3F2
:1004D0000080002802DA404213A507E031688A074D
:1004E00001D512A502E0490704D511A5012401E0B8
:1004F000AFF3008000210A2206F1240709E0B0FBD7
:10050000F2FCB0FBF2F302FB1C00303078541846CA
:10051000491C0028F3D123462A463046BDE8F04165
:1005200000F090B9000000002D0000002B0000003A
:10053000200000002DE9F05F894604464FF0000AD4
:10054000DFF824B1FB44C0F820A02046E1688847CA
:1005500000287DD0252806D0D4E901219047206AC3
:10056000401C2062F1E700255F462046E16888478D
:100570002028064607DB312E05D2B81910F8200CCA
:1005800008B10543F1E7A80701D525F00405C4F833
:100590001CA00027C4F818A02A2E09D0304602F06B
:1005A000B7F938B304EB8708303EC8F8186019E093
:1005B00059F8041B204604EB87029161E1688847E3
:1005C000012F064618D1E069002820DA25F0200521
:1005D0001DE0D8F8180000EB800006EB4000303832
:1005E000C8F818002046E1688847064602F090F9EE
:1005F0000028EED1012F0AD02E2E08D12046E16826
:1006000088477F1C0646022F45F02005C4DBA06901
:10061000002803DA404245F00105A061E80701D057
:1006200025F01005A6B1A6F14100192802D8203600
:1006300045F400654A463146204625604D46FFF7A1
:1006400019FE60B1012807D0ED1D25F0070000E07C
:1006500007E000F1080978E705F1040975E730467D
:100660007AE7206ABDE8F09FE430000070B50646E6
:1006700000F0E4F80468054630460A22002100F044
:100680006EF92C6070BD0000014A00F0A1B90000B5
:10069000B800002040EA0103024630B59B0710D1A4
:1006A0004FF0013400E008C208C91D1B9D4315EA44
:1006B000C41FF8D013F0FF0102F8011B0DD01B0A74
:1006C000F8E711F8013B002B02F8013B05D011F8C7
:1006D000013B002B02F8013BF3D130BD10B5431CA8
:1006E00002E010F8011B71B18107FAD14FF001321D
:1006F00002C88C1A8C4314EAC211F9D0C01A0A0637
:1007000003D0C01E10BDC01A10BD0A0401D0801E47
:1007100010BD0902FCD0401E10BD4FF0000204299C
:10072000C0F0128010F0030C00F07681CCF1040CC4
:10073000BCF1020F18BF00F8012BA8BF20F8022B54
:10074000A1EB0C0100F068B95FEAC17C24BF00F89E
:10075000012B00F8012B48BF00F8012B704710B5A2
:10076000044610F0030F08BF11F0030F40F015808E
:100770004FF0013E121FC0F20E8051F8043BA3EB74
:100780000E0C2CEA030C1CEACE1C08BF40F8043BFC
:10079000F0D0A1F1040102F10402521E08DB11F8AD
:1007A000013B002B00F8013BF7D11146FFF7B5FFE5
:1007B000204610BD4FF0013C50F8042B51F8043B8B
:1007C0009A4221D1A2EB0C03934313EACC1317D125
:1007D00050F8042B51F8043B9A4215D1A2EB0C03BC
:1007E000934313EACC130BD150F8042B51F8043B7C
:1007F0009A4209D1A2EB0C03934313EACC13DBD04A
:100800004FF00000704700BFD01A01BAB1FA81F171
:1008100001F0180122FA01F0CB40C1F12001DBB256
:10082000C0B2C01A2CFA01F3D11A914311EAC311D4
:10083000E6D1704770477047704700000048704726
:10084000CC0200202DE9F0470D4699469246044619
:1008500000F124080168880604D5E06921F0100140
:10086000216000E00120A84201DD471B00E00027D5
:10087000A1697A1902EB0900081AA0612078C00664
:1008800002D42046FFF7F2FD002608E0D4E901215A
:100890001AF806009047206A401C761C20624E45DC
:1008A000F4DB2078C0060AD52046FFF7DFFD06E01E
:1008B000D4E9012130209047206A401C2062381E74
:1008C000A7F10107F4DC07E0D4E9012118F80500DD
:1008D0009047206A401C2062281EA5F10105F3DC28
:1008E0002046FFF7D9FD2078000602D50220BDE89A
:1008F000F0870120FBE7000001694A1C02610878CB
:10090000704700B58FB0CDE901310021059105494F
:100910007944CDE9031011466846FFF70BFE0FB08E
:1009200000BD0000E5FFFFFF0A6802F8010B0A6046
:100930007047D1E900239A4202D2531C0B60107019
:1009400070473A2800D2303820F02002412A01D3E3
:10095000A2F13700884201D34FF0FF3070472DE9F4
:10096000F04791460F4680460446002614F8015B86
:100970002DB100F07BF80068405DC007F6D12B2D4B
:1009800002D02D2D18D0641E4A463946204600F06C
:1009900075F827B13968A14201D1C7F800804FF03E
:1009A000020471050BD54042002803DDFFF746FF26
:1009B0000460A007BDE8F08746F48066E4E70028FD
:1009C000F8DAFFF73BFF04606FF00040F2E7000049
:1009D0002DE9F04115460E46040002D12C6804B9F9
:1009E0000BA4204600F0A9F80444207870B12746F3
:1009F0003146384600F091F80444207810B10020C8
:100A000004F8010B38462C60BDE8F0810027F9E7B7
:100A1000000000004FF0000200B5134694469646D1
:100A2000203922BFA0E80C50A0E80C50B1F1200101
:100A3000BFF4F7AF090728BFA0E80C5048BF0CC0AF
:100A40005DF804EB890028BF40F8042B08BF70470D
:100A500048BF20F8022B11F0804F18BF00F8012B7F
:100A60007047000000487047CC02002010B500F02D
:100A700097F8001D10BD00BFF52500002DE9F05FBF
:100A8000824615468B4600270AF10104B9460078D4
:100A9000302801D09DB113E014F8010B012778280C
:100AA00003D0582801D045B10AE00DB1102D07D16F
:100AB000002714F8010B102502E0082500E00A25A4
:100AC0000026B0460EE005FB080005FB06F10127F5
:100AD0001FFA80F801EB1046B6F5803F00D3B94607
:100AE00014F8010B2946FFF72CFF0028EBDABBF1C5
:100AF000000F05D00FB1641E00E05446CBF8004053
:100B0000B9F1000F06D0FFF799FE02210160C81E5F
:100B1000BDE8F09F48EA0640FAE730B503461D7885
:100B20001DB10A4603E0AC4201D1181A30BD12F8DB
:100B3000014B002CF7D15B1CF1E730B503461D7863
:100B40003DB10A4612F8014B1CB1AC42FAD15B1C14
:100B5000F5E7181A30BD7546FFF784FFAE4605006D
:100B60006946534620F00700854618B020B5FFF7C8
:100B70003FFCBDE820404FF000064FF000074FF06B
:100B800000084FF0000B21F00701AC46ACE8C009AB
:100B9000ACE8C009ACE8C009ACE8C0098D467047B4
:100BA00000487047EC02002010B50446AFF3008007
:100BB0002046BDE81040FFF77ABB0000014918202D
:100BC000ABBEFEE726000200704700000146302958
:100BD00006DB392904DCA1F13000184A105C7047AB
:100BE000412906DB462904DCA1F13700134A105CD9
:100BF000F5E7612906DB662904DCA1F157000F4AFD
:100C0000105CECE7592901D0792901D16E20E6E783
:100C10004C2901D06C2901D13820E0E7562901D0B8
:100C2000762901D13E20DAE72D2901D14020D6E7EF
:100C30003A2901D18020D2E70020D0E743000020EC
:100C4000002100E0491C8142FCD3704710B51249D5
:100C5000124801F047FB1249086001F005F901F064
:100C60003FF901F0CFF901F087F90D4800686421E0
:100C7000B0FBF1F4204601F0E3FC5021094801F0FB
:100C800023FE152000F05CFC01F0CCFC01F0D1FC4F
:100C900000F088FC10BD00000024F400500500F1B5
:100CA0002C00002000C0004010B514480088401CF3
:100CB000124908800846008805281EDB00200880AD
:100CC00000220621222000F0AFFB0D49087000220F
:100CD0000521222000F0A8FB094908700022062106
:100CE000222000F0A1FB0649087006480278042182
:100CF000222000F099FB0249087010BD400000203E
:100D00003C0000203E00002010B521480088401C17
:100D10001F49088008460088052838DB0020088025
:100D200000220621222000F07FFB1A4908701A4891
:100D30001A490978405C70B1FF220521222000F099
:100D400073FB14490870164802780621222000F02F
:100D50006BFB10490870134802780421222000F030
:100D600063FB0C4908700D480078401C0B49087063
:100D70000B4800784006000E0949087007480078C3
:100D8000082804DB0120087000200449087010BD09
:100D9000400000203C0000205C0000203D000020BE
:100DA000420000203E00002010B523480088401C6F
:100DB000214908800846008805283BDB0020088080
:100DC00000220621222000F02FFB1C4908701C483D
:100DD0001C490978405C88B11B481A490978425C73
:100DE0000521222000F020FB1449087017480278E2
:100DF0000621222000F018FB1049087014480278E0
:100E00000421222000F010FB0C4908700D480078E6
:100E1000401C0C4908700D4800784006000E0B4934
:100E2000087008480078082804DB012008700020BA
:100E30000449087010BD0000400000203C00002064
:100E40005C0000203D000020A500002042000020A2
:100E50003E00002010B523480088401C214908802E
:100E60000846008805283BDB002008800022062178
:100E7000222000F0D9FA1C4908701C481C49097846
:100E8000405C88B11B481A490978425C0521222040
:100E900000F0CAFA14490870174802780621222087
:100EA00000F0C2FA10490870144802780421222088
:100EB00000F0BAFA0C4908700D480078401C0C4943
:100EC00008700D4800784006000E0B49087008486D
:100ED0000078082804DB012008700020044908700D
:100EE00010BD0000400000203C0000205C000020FD
:100EF0003D000020A5000020420000203E00002010
:100F000010B523480088401C214908800846008805
:100F100005283BDB0020088000220621222000F06B
:100F200083FA1C4908701C481C490978405C88B148
:100F30001B481A490978425C0521222000F074FA06
:100F400014490870174802780621222000F06CFA34
:100F500010490870144802780421222000F064FA35
:100F60000C4908700D480078401C0C4908700D4869
:100F700000784006000E0B490870084800780828E1
:100F800004DB0120087000200449087010BD000037
:100F9000400000203C0000205C0000203D000020BC
:100FA000A5000020420000203E00002010B523488C
:100FB0000088401C214908800846008805283BDB42
:100FC0000020088000220621222000F02DFA1C4972
:100FD00008701C481C490978405C88B11B481A49B4
:100FE0000978425C0521222000F01EFA144908709D
:100FF000174802780621222000F016FA10490870DE
:10100000144802780421222000F00EFA0C490870DE
:101010000D480078401C0C4908700D4800784006C7
:10102000000E0B49087008480078082804DB0120EE
:10103000087000200449087010BD00004000002026
:101040003C0000205C0000203D000020A5000020A6
:10105000420000203E00002010B51148007807280B
:101060001AD2DFE800F004070A0D1013160001F091
:10107000ABF812E0FFF798FE0FE0FFF715FE0CE06B
:10108000FFF73EFF09E0FFF791FF06E0FFF7E2FE02
:1010900003E0FFF739FE00E000BF00BF10BD000015
:1010A000020000202DE9F04104460D4616460027B7
:1010B000002348E0264800781844384490FBF6F1B5
:1010C00006FB1100205C20B90020E854581CC3B274
:1010D00039E01F4800781844384490FBF6F106FBCD
:1010E0001100205C2D280AD0194800781844384493
:1010F00090FBF6F106FB1100205C3A2813D1D81DB5
:10110000C11700EB5171C910A0EBC101695C41F03E
:101110008002C11700EB5171C910A0EBC1016A54E4
:10112000781CC7B20FE00A4800781844384490FB96
:10113000F6F106FB110014F800804046FFF746FD6B
:10114000E854581CC3B2082BB4DBBDE8F0810000A2
:10115000B0000020D0F8003412F0010F14BF0B4390
:101160008B43C0F8003412F0020FD0F8202414BFD3
:10117000114322EA0101C0F8201470472DE9F00361
:1011800001264FF0000C0325C2F3411706FA0CF4B8
:101190000C4211D0D0F8C48F4FEA4C0405FA04F980
:1011A00028EA0908C0F8C48FD0F8C48F07FA04F4FD
:1011B00048EA0404C0F8C44F0CF1010C0CF0FF0C19
:1011C000BCF1080FE2D3D0F800C512F0010F14BF34
:1011D0004CEA010C2CEA010CC0F800C5D0F804C59B
:1011E00012F0020F14BF4CEA010C2CEA010CC0F8FB
:1011F00004C5D0F808C512F0040F14BF4CEA010C66
:101200002CEA010CC0F808C5D0F818C512F0080F78
:1012100014BF4CEA010C2CEA010CC0F818C512F0FE
:10122000100FD0F83C2514BF0A438A43C0F83C2570
:10123000D0F80C2513F0010F14BF0A438A43C0F8FD
:101240000C25D0F8102513F0020F14BF0A438A436F
:10125000C0F81025D0F8142513F0040F14BF0A436A
:101260008A43C0F81425D0F81C2513F0080F14BFCA
:101270000A438A43C0F81C25D0F8442513F4007FA4
:1012800014BF0A438A43C0F84425D0F8402513F41C
:10129000407F14BF0A438A43C0F84025D0F8282570
:1012A000002B0CBF114322EA0101C0F82815BDE84C
:1012B000F00370470E4AC0F30741D26E01238B4002
:1012C0001A420C4A1ABF02EBC101496852F83110A8
:1012D000020AD1F82C354FF00F0C0CFA02FC00F08A
:1012E0000F0023EA0C0390401843C1F82C05704707
:1012F00000E00F403C32000030B50C4605460022AD
:10130000FFF728FF21462846BDE830400823012288
:10131000FFF734BF30B50C46054608230122FFF71E
:101320002DFF21462846BDE830400122FFF712BFBD
:1013300030B50C4605460222FFF70CFF2146284631
:10134000BDE8304009230122FFF718BF30B50C4635
:1013500005460222FFF7FEFE21462846BDE8304042
:1013600008230122FFF70ABF30B50C4605460222CA
:10137000FFF7F0FE21462846BDE830400823012251
:10138000FFF7FCBE30B50C4605460222FFF7E2FE31
:1013900021462846BDE8304008230122FFF7EEBE73
:1013A00040F82120704700002DE9F04104460E4628
:1013B00000BF1C4800F078F80028FAD1002221462E
:1013C000184800F0B9F83146164800F077F80721C0
:1013D000144800F06FF800BF124800F05FF80028D2
:1013E000FAD1104800F071F8C7B20120FFF728FCCD
:1013F000012221460B4800F09FF80721094800F020
:1014000059F800BF074800F049F80028FAD105480C
:1014100000F052F8C5B20120FFF712FC2846BDE8E3
:10142000F0810000000002402DE9F04104460F4623
:10143000154600BF184800F037F80028FAD10022FE
:101440002146154800F078F83946134800F036F880
:101450000321114800F02EF800BF0F4800F024F8D7
:101460000028FAD10C4800F030F8C6B229460A48E4
:1014700000F024F80521084800F01CF800BF0648D9
:1014800000F012F80028FAD1034800F01EF8C6B2A6
:101490003046BDE8F081000000000240406810F0D6
:1014A000400018BF01207047406810F0010018BFCD
:1014B00001207047416070478068704781607047C5
:1014C000016A41F0100101627047406810F0010F9D
:1014D00005D110F0120F1CBF00F01C007047002057
:1014E00070470000036A43F010030362002A14BF30
:1014F0000E4A0F4A02EB820301EB830302EB8202E6
:1015000092005B1EB3FBF2F2521EC260D0F8C02FF5
:1015100012F0010F08BF7047064A1144521CB1FB7C
:10152000F2F1491E41F08001C1607047801A060047
:10153000A08601007F47370142EA41010160704700
:101540001649042804BF086840F4803018D00528E4
:1015500004BF086840F4003012D0062812D00F28CB
:1015600015D0102838BF7047103800F01F01012235
:1015700002FA01F142090A4850F82200016070475E
:1015800008607047086840F48020086070474FF09A
:10159000E020016941F002010161704724ED00E0A3
:1015A0008833000010B5FEF790FE002818BF012018
:1015B00010BD0000084A20F00303D25813688007CA
:1015C000C00E4FF0FF0C0CFA00FC23EA0C0301FAEA
:1015D00000F0184310607047EC32000010B5002096
:1015E0002649087026480078012846D12548007809
:1015F000E8B925480078401C23490870084600785F
:101600002249097888422FDB00201F4908702048B2
:101610000078401C1E4908701E48FFF75FF81C49FF
:101620000978884220D80020194908701CE0164823
:101630000078401C1449087008460078134909785E
:10164000884211DB0020104908701148007830B939
:101650001048FFF743F8401E0D49087004E00C489D
:101660000078401E0A4908700A48FFF737F8C4B2EC
:10167000224609490748FFF715FD10BD3900002033
:1016800002000020AD000020AF000020AE000020CE
:10169000B000002065000020A500002010B500204B
:1016A0000749087000F04CFB0648007838B100206C
:1016B00004490870002201210348FFF771FE10BDA4
:1016C000380000206400002000400640002010493F
:1016D000087010480078D0B10F4880790F49897997
:1016E000884214D10C4840790C49497988420ED17E
:1016F0000948007909490979884208D10120084937
:1017000008700620074908700120074908707047D3
:101710003B0000200A0000200C00002014000020E4
:1017200008000020090000200700002010B500205C
:101730002149087000240CE02048005D38B12048A1
:10174000005D08B9012000E000201D490855601C1B
:10175000C4B2082CF0DB1B48007860B31A4800784C
:10176000002828DD18480078401E174908701748DF
:10177000007868B101228021154800F05DFB4FF42C
:101780008071134800F04AFB0020104908700CE0FB
:10179000002280210E4800F04FFB4FF480710C486E
:1017A00000F037FB0120094908700748007810B99C
:1017B00000200449087010BD3A00002054000020A9
:1017C0005C00002008000020090000200700002025
:1017D0000080024008B5FC48007808287ED2DFE887
:1017E00000F010A1FEFD04A2FCFB0120F7490870E7
:1017F00000F044FCF64800210160416000F0D0FC9C
:1018000083E2F2480078012806D003282CD004286F
:1018100050D0052876D176E00320EC4908700020EE
:10182000EC49087000F02AFCEB48EC490A680260B9
:1018300049684160C0780090E74883780288E8A151
:10184000EB48FEF7E5FDE248002101604160E9490F
:10185000E74800F00BFD0120DD49087048708870F2
:10186000C87000F09DFC5BE00420D849087000209F
:10187000D849087000F002FCDF48D8490A680260C5
:101880004968416080790090DB4843790279DBA1A7
:10189000DE48FEF7BDFDD749DC4800F0E7FCCC4848
:1018A0000021016041600120C9490870487000F0C2
:1018B00077FC35E00520C54908700020C54908704F
:1018C00000F0DCFBCC48D2490A68026049684160FC
:1018D00080790090C8484379027900E014E2C7A1FA
:1018E000CA48FEF795FDC349C84800F0BFFCB84898
:1018F0000021016041600120B5490870487000F086
:101900004FFC0DE00BE00120B049087000F0B6FB81
:10191000AF4800210160416000F042FC00E000BFE0
:1019200000BFF2E100BF00F0A9FBA848007803283F
:1019300004D0042831D0052860D12FE0A5480078D4
:1019400040B90020A249C870887048700870012012
:10195000487108719F480078012806D100209C49F1
:10196000487108710120C87188719A48007802286E
:1019700008D101209649C87088704870087000200E
:10198000C871887193480078401C032190FBF1F2E4
:1019900001FB12008F49087031E000BF8D480078CC
:1019A00030B900208A49487008700120C8708870DA
:1019B00088480078012806D100208549C8708870C1
:1019C0000120487108718348007802280BD100205B
:1019D0007F494871087103E04EE19BE04BE112E062
:1019E0000120487008707B480078401C032190FB60
:1019F000F1F201FB12007749087000E000BF00BF60
:101A000000F0CEFB81E171480078032804D004285F
:101A100041D005287BD13FE06E48007858B96E4828
:101A20000088401C42F2107190FBF1F201FB1200A1
:101A30006949088020E06748007801280AD1664893
:101A400080780C2190FBF1F201FB1200401C6249EE
:101A5000887011E05F48007802280DD15E4A9178C5
:101A6000108800F07FFF5C49C97891FBF0F200FB21
:101A70001210401C5849C8705748C078009056480A
:101A80008378028856A15A48FEF7C2FC5949584843
:101A900000F0ECFB3CE000BF4E48007850B95648DF
:101AA0000079401C182190FBF1F201FB1200524911
:101AB00008711CE04748007801280AD14E48407957
:101AC000401C3C2190FBF1F201FB12004A49487195
:101AD0000DE040480078022809D147488079401C31
:101AE0003C2190FBF1F201FB12004349887142480E
:101AF0008079009040484379027940A14348FEF73D
:101B000087FC3C49414800F0B1FB01E0FFE700BF22
:101B100000BFFAE02D480078032804D0042843D001
:101B2000052850D141E02B48007858B92A48008850
:101B30000A3042F2107190FBF1F201FB12002649CB
:101B4000088022E02348007801280BD122488078C1
:101B500009300C2190FBF1F201FB1200401C1E49E0
:101B6000887012E01B48007802280ED11A4A91783A
:101B7000108800F0F7FE1849C978093191FBF0F29E
:101B800000FB1210401C1449C8701348C078009024
:101B900011488378028812A11548FEF739FC1549CF
:101BA000134800F063FB64E000BF0A48007888BB7C
:101BB000114800790A30182190FBF1F201FB120064
:101BC0000D49087144E053E00600002002000020A7
:101BD00054000020000000201C0000200C00002009
:101BE000253034642D253032642D253032640000D8
:101BF00095000020A500002024000020253032643C
:101C00003A253032643A25303264000085000020E5
:101C100014000020FFE73F48007801280AD13E4821
:101C200040790A303C2190FBF1F201FB12003A4965
:101C300048710DE037480078022809D1364880798C
:101C40000A303C2190FBF1F201FB1200324988710D
:101C5000314880790090304843790279AFF26401CD
:101C60002E48FEF7D5FB2E492C4800F0FFFA00E085
:101C700000BF00BF49E000BF2A480078032811D107
:101C800001202849087000F0F9F9274827490A6817
:101C9000026049684160264800210160416000F00F
:101CA0007FFA30E01F480078042811D101201D4937
:101CB000087000F0E3F91C4817490A680260496897
:101CC00041601B4800210160416000F069FA1AE0A0
:101CD00014480078052816D101201249087000F038
:101CE000CDF901201349087013480B490A680260B6
:101CF000496841600E4800210160416001200949A6
:101D0000087000F04DFA00E000BF00BF00200B4952
:101D1000087008BD0000002024000020850000207D
:101D2000A5000020020000200C0000201C00002064
:101D3000540000200A0000201400002006000020AB
:101D4000002000BF3EE0214931F8101001EB810175
:101D50004FF49672B2EB410F07DC011D1C4A117063
:101D600000211A4A22F81010704701218140194AB7
:101D70001278914339B1154931F81010491C134AB2
:101D800022F810101CE0114931F8101001EB81010C
:101D90004FF49672B2EB410F03DC011D0C4A117037
:101DA0000AE00A4931F8101001EB81011E22B2EB62
:101DB000410F01DC064A10700021044A22F810107D
:101DC000411CC8B20828BEDB00BFCDE7BC00002024
:101DD000060000203E000020D0F8C82F22F00702A5
:101DE00022F480721143C0F8C81F7047084401688C
:101DF0006FF352011143016012F0020F14BFB021C2
:101E00008C21016214BF4FF4306140F60C01416235
:101E10007047425822F0010242507047425842F047
:101E20000102425070470844016811F0020F14BFCC
:101E30005108511E01617047002A826814BF114386
:101E400022EA01018160704721F03F0318440368D2
:101E500013F0020F18BF520803699A1A11F0010F0C
:101E600014BFC2618261704710B5194800F0B0FB21
:101E700000BF174800F0C0FB0028FAD01448C01C6F
:101E800000F0A6FB00BF1248C01C00F0B5FB002804
:101E9000F9D00F48C01D00F09BFB00BF0C48C01DCF
:101EA00000F0AAFB0028F9D001210A48FFF732FA16
:101EB00001210948FFF72EFA03210848FFF71CFA11
:101EC0000A23012203210548FFF758F910BD00003D
:101ED000050800F0005002400040064000D00340DA
:101EE00010B51E4800F074FB1D4800F071FB1D4842
:101EF000FFF7E0F91C48FFF7DDF904211B48FFF765
:101F000025FA08211948FFF713FA01221848016839
:101F10001848FFF7E7FA1748FFF7D2FAFF220C211B
:101F20002220FFF781FA044600220D212220FFF72C
:101F30007BFA044600220E212220FFF775FA0446A0
:101F4000002203211820FFF76FFA0446FF22012127
:101F50001820FFF769FA044610BD0000002000F0C9
:101F6000010800F002080100020C010000500040CE
:101F70002C0000200000024010B51D4800F028FB96
:101F800000BF1B4800F038FB0028FAD02021194878
:101F9000FFF7C0F91848FFF78DF920211548FFF722
:101FA000E3F9164800F014FB00BF144800F024FBCE
:101FB0000028FAD000211248FFF70EFF00224FF44C
:101FC00080710F48FFF712FF4FF47A524FF480717F
:101FD0000B48FFF728FF4FF47A6240F207110848D8
:101FE000FFF732FF012280210548FFF725FF10BDD2
:101FF000090800F00010064006140900004000F037
:102000000080024010B5144800F0E2FA134800F0D6
:10201000DFFA00BF114800F0EFFA0028FAD00120E3
:10202000FFF748F940F20140FFF744F903214FF070
:102030004020FFF7A7F960234FF4E1320848016818
:10204000084800F008FC08A000F048FC0121152019
:10205000FFF7B0FA10BD0000001800F0000800F013
:102060002C00002000C000400D0A48656C6C6F2CED
:1020700020776F726C64210D0A00000010B50024F7
:102080001EE000201249085500BF12480088401C7D
:1020900080B210490880B0F5FA7FF6DB0020088096
:1020A000002206212220FFF7BFF90B490870002209
:1020B00005212220FFF7B8F907490870601CC4B257
:1020C000082CDEDB054800780549087010BD0000CB
:1020D0005C000020400000203C00002002000020A6
:1020E0000100002070B50446002544E02548008822
:1020F000401C80B223490880B0F5FA7F33DB002012
:102100000880002206212220FFF78EF91E49087060
:102110001E481F490978405C88B11E481C4909784F
:10212000425C05212220FFF77FF9174908701A4801
:10213000027806212220FFF777F913490870144826
:102140000078401C12490870134800784006000EC1
:10215000114908700E480078082804DB0120087037
:1021600000200B4908700D48007820B100200B4971
:102170000870681C85B205EB8500B4EB400FB5DC38
:1021800070BD0000400000203C0000205C000020EA
:102190003D000020A5000020420000203800002063
:1021A000002004E00121054A1154411CC8B208284E
:1021B000F8DB03490978034A117070475C0000207E
:1021C000010000200200002010B50022012118208B
:1021D000FFF72AF91B4908701B491CA000F046F8BC
:1021E0001D490C8804EBD4714810FFF77BFFFF22D8
:1021F00001211820FFF718F912490870FFF73EFF78
:102200001648FEF71DFDFFF7CBFF00220121182025
:10221000FFF70AF90B4908700B4911A000F026F8E6
:102220000D490C8804EBD4714810FFF75BFFFF22C7
:1022300001211820FFF7F8F80249087001200A4927
:10224000087010BD3C000020A5000020333139315A
:1022500030363937000000000400002040420F00F3
:102260004C594320205631000200002070B505462D
:102270000C460023002600BF2FE09819285C48B9BF
:102280000020E05403E00020E054581CC3B2082BA7
:10229000F9DB70BD9819285C2D2803D09819285CAB
:1022A0003A2813D1581CC11700EB5171C910A0EB8B
:1022B000C101615C41F08002C11700EB5171C9108E
:1022C000A0EBC1016254701CC6B206E09919685CAB
:1022D000FEF77CFCE054581CC3B2082BCDDB00BFDA
:1022E000D7E700002DE9F003AF4D02462868AF4B59
:1022F0001840A0F18053B3F5A02359D002F038095B
:10230000DFF8AC82C2F38414B9F1100F25D0B9F113
:10231000300F04BF47F230504FF400130DD04FF090
:102320003800904304BF4FF40040C30105D012F0C1
:10233000380F1CBF0020034613D09E4F12F4605F7D
:102340004FF0000618BF00222CD057F83240444509
:102350007DD307EBC2025268E1E00023404615241A
:10236000EBE7A4F10900122822D29348D5F87CC0EB
:102370004FF04C7350F824002CF01C0C072CA8BF15
:102380004CF0100CC5F87CC02E6D4FF4002C16F4E8
:10239000807FD2D1BCF1010C0AD02E6D16F4807F63
:1023A000F8D0CAE712F0380F18BFB9F1100F04D0F7
:1023B000BDE8F0034FF000007047C2F30268DFF899
:1023C000FCC14FF0000257F83290E14503D307EB10
:1023D000C202526803E0521C062AF4D33246C5F802
:1023E000C020D5F8B020DFF8D8C102EA0C0242F0D4
:1023F0000042C5F8B020DFF8CCC1A4F109024C1EA0
:102400005CF828C0A444BCFBF1FCD5F8B01019431B
:10241000C5F8B01008EBC80101EB41046A4902EBB2
:10242000420201EBC40101EB82046468C5F8644117
:10243000D5F864416FF0FF0808EB0C2C44EA0C0C53
:10244000C5F864C151F82210D5F8602100E061E0C0
:1024500002F400021143C5F86011D5F86011D5F8F7
:102460006021C1F38921C2F30904D5F86421C2F3C4
:10247000042202F1010CD5F8642102F01F02521C63
:10248000B0FBF2F04A09C2F100084443424301EBB9
:10249000481104EB5212484302EB9020B0FBFCF0D1
:1024A00041080846002257F832C0844503D307EBA1
:1024B000C200466802E0521C062AF4D3C5F8C06088
:1024C000D5F8600110F4000F1DBFD5F8B00040F042
:1024D0008040C5F8B000D5F8600104BF40F40000AA
:1024E000C5F860014FF40040D5F8682112F0010FE3
:1024F00002D1401E0028F7DC002808BF002148D088
:10250000D5F8B000184340F0010040F01040C5F885
:10251000B0003EE0521C062AFFF417AF3246C5F861
:10252000C020D5F8602122F40002C5F86021D5F85A
:10253000B020DFF898C002EA0C0242F00042C5F871
:10254000B020002908BF4FF0000C0AD0B0FBF1FC0E
:10255000BCF1000F18BFACF1010C0CF10101B0FB94
:10256000F1F10846002257F83240844203D307EBCA
:10257000C200466802E0521C062AF4D3C5F8C060C7
:10258000D5F8B00043EA8C22104340F00040C5F873
:10259000B000D5F8B00020F47000C5F8B000BDE878
:1025A000F00308467047000000E00F400000FF7095
:1025B0000024F400FC350000E033000040787D0189
:1025C00000FC0FE0D83300004C340000FF0300EFA4
:1025D000C0F307230749C0B2194401F07043C1F3A7
:1025E000130143EA411141EA800040F000700122EA
:1025F0000260704700E60F40C0F307220849C0B2EE
:10260000114401F07042C1F3130142EA411141EA61
:10261000800040F000700068002818BF012070475B
:1026200000EA0F404FF0E020016941F0050101612F
:1026300070474FF0E020016941F0020101617047ED
:102640004FF0E021401E48617047000010B52F4850
:10265000007880F0FF0020B1FFF7BCF8FF202B4985
:1026600008702B48008828B129480088401E284956
:1026700008801EE064202649088001202549087052
:1026800025488079401C24498871084600F0BEFC2A
:102690002248007801280CD11F49214800F040F958
:1026A0001F48FEF71BF8C4B222461E491C48FEF71D
:1026B000F9FC1D48008828B11B480088401E1A49B3
:1026C000088005E00A201849088001201749087091
:1026D0001748008828B116480088401E1449088011
:1026E00004E001201249088012490870124800884D
:1026F00028B111480088401E0F49088005E03220AB
:102700000D49088001200D49087010BD0600002009
:10271000360000203B0000200C00002002000020BA
:1027200065000020A50000203200002039000020B4
:102730003000002038000020340000203A00002043
:102740000448006840F470000249086002480349E8
:102750000860704788ED00E00024F400B400002019
:1027600070B50121264800F0B3F8054629462448F3
:1027700000F0A8F8012211462248FEF711FE32E0CF
:102780001F4800F055F8C4B20D2C01D00A2C21D1FD
:102790001D480078002825DD00211C481A4A1278BF
:1027A000815401461A48FDF775FF1AA000F096F80B
:1027B000164800F093F81AA000F090F8134800F0C3
:1027C000F9F80020104908704FF480710F48FDF7A8
:1027D000A4FF07E00C4801780078401C0A4A1070FA
:1027E0000A48445400BF064800F030F818B10648C3
:1027F0000078FF28C4DB01200A49087070BD000082
:1028000000C0004000400640B1000020CC01002084
:10281000CC00002052656365697665643A2000004B
:102820000D0A0000640000208069C0F3C0007047FA
:10283000816911F0100F0CBF00684FF0FF30704736
:10284000826912F0200FFBD101607047806901217D
:1028500021EA10107047D0F818C01CF0080FFAD108
:10286000D0F82CC02CF0100CC0F82CC0D0F830C020
:102870002CF0010C2CF4407CC0F830C0D0F830C0F3
:10288000B1EB021F34BF4CF0200C2CF0200CC0F830
:1028900030C038BF5208C900B1FBF2F1491C4908E9
:1028A0008A09426201F03F018162C36200218161B5
:1028B000C16A41F01001C162016B40F20132114363
:1028C0000163704741647047826B114381637047B5
:1028D000002914BF006CC06B7047000010B504469F
:1028E0000AE000BF0948FFF79FFF0028FAD114F85B
:1028F000011B0648FFF7A4FF20780028F1D100BF94
:102900000248FFF791FF0028FAD110BD00C0004037
:1029100030380A2801D2012070470020704700009B
:102920007FB505460C46A07961792279E378CDE937
:102930000032CDE90210A378228802A12846FDF7D3
:1029400067FD7FBD253034642D253032642D253060
:10295000326420253032643A253032643A253032F0
:102960006420000010B50246022917D1D31702EBEC
:1029700093739B10A2EB83032BB9642392FBF3F4B4
:1029800003FB142333B94FF4C87392FBF3F403FB36
:1029900014230BB91D2010BD1C20FCE7042905D011
:1029A000062903D0092901D00B2901D11E20F2E705
:1029B0001F20F0E72DE9F041AEB0804600253F2210
:1029C00041461EA8FDF7CBFE00208DF8B7001EAED5
:1029D00009E030780D2802D030780A2802D1002092
:1029E000307003E0761C30780028F2D100BF1EA8BA
:1029F00000F0FBFADEA11EA8FDF746FE074609E03F
:102A000028466D1C04A941F82070D9A10020FDF7CB
:102A10003BFE07460FB10A2DF2DB2DB9D5A0FFF71B
:102A20005DFF2EB0BDE8F081D9A10498FDF7C2FE8C
:102A3000D8B9D9481E210C221346CDE900210290B5
:102A4000114640F2E97000F0C5FA0020D349087041
:102A5000D3480078022801D1FFF7A2FB0120D14919
:102A60000870D1A0FFF73AFF80E1D4A10498FDF7E8
:102A7000A1FE00287ED1012D7CDDD2A10598FDF7B5
:102A800099FE00283AD1022432E0601CA8422EDAD6
:102A900004A951F82400CDA1FDF78CFE40B904AA89
:102AA000611C52F82100FDF7E1FDBB4908801EE0E2
:102AB00004A951F82400C7A1FDF77CFE40B904AA7F
:102AC000611C52F82100FDF7D1FDB34988700EE07A
:102AD00004A951F82400BBA1FDF76CFE38B904AA83
:102AE000611C52F82100FDF7C1FDAB49C870A41C60
:102AF000AC42CADBB9A0FFF7F1FE37E1BBA10598F4
:102B0000FDF758FE00283CD1022432E0601CA842A8
:102B10002EDA04A951F82400B6A1FDF74BFE40B906
:102B200004AA611C52F82100FDF7A0FD9A49087122
:102B30001EE004A951F82400B0A1FDF73BFE40B906
:102B400004AA611C52F82100FDF790FD92494871DA
:102B50000EE004A951F82400AAA1FDF72BFE38B914
:102B600004AA611C52F82100FDF780FD8A49887192
:102B7000A41C00E08AE0AC42C8DBA4A0FFF7AEFED4
:102B8000F4E0A6A10598FDF715FEE8BB022435E0A8
:102B9000601CA8422EDA04A951F8240095A1FDF783
:102BA00009FE40B904AA611C52F82100FDF75EFD40
:102BB0009C4908711EE004A951F824008FA1FDF77B
:102BC000F9FD40B904AA611C52F82100FDF74EFD41
:102BD000944948710EE004A951F8240089A1FDF739
:102BE000E9FD38B904AA611C52F82100FDF73EFD49
:102BF0008C498871012069490870A41CAC42C7DB6C
:102C000089A0FFF76BFEB1E0FFE78BA10598FDF708
:102C1000D1FDD8B9022D19DD89A10698FDF7CAFDAD
:102C200030B95F48007802280CD1FFF7B9FA09E003
:102C300084A10698FDF7BEFD20B9FFF71FFA022018
:102C40005749087080A0FFF749FE8FE083A10598DF
:102C5000FDF7B0FDB0B9022D14DD82A10698FDF795
:102C6000A9FD18B900204F49087007E07FA1069818
:102C7000FDF7A0FD10B901204A4908707DA0FFF7BB
:102C80002DFE73E07FA0FFF729FE6FE085A1049879
:102C9000FDF790FD002866D1012D64DD49A105985E
:102CA000FDF788FD80B93C48C0783B498978CDE97B
:102CB0000010394803887DA240210EA8FDF7BCFB17
:102CC0000EA8FFF70BFE51E048A10598FDF772FD35
:102CD00080B93148807930494979CDE900102E48D2
:102CE000037978A240210EA8FDF7A6FB0EA8FFF7F6
:102CF000F5FD3BE049A10598FDF75CFD80B9494829
:102D0000807948494979CDE900104648037973A292
:102D100040210EA8FDF790FB0EA8FFF7DFFD25E090
:102D200045A10598FDF746FD50B91D4909780229CE
:102D300001D170A100E073A10846FFF7CFFD15E0B7
:102D400046A10598FDF736FD48B91649097809B935
:102D500070A100E073A10846FFF7C0FD06E075A072
:102D6000FFF7BCFD02E07BA0FFF7B8FD00BF58E60F
:102D7000203A00004552524F523A20496E76616C1B
:102D8000696420636F6D6D616E640D0A0000000060
:102D90002A525354000000000C0000200A000020BA
:102DA00002000020AD00002053797374656D20523D
:102DB00065736574204F4B0D0A0000002A5345547B
:102DC00000000000444154450000000059454152B4
:102DD000000000004D4F4E54480000005345542061
:102DE00044415445204F4B0D0A00000054494D45C5
:102DF00000000000484F5552000000004D494E555C
:102E0000544500005345434F4E4400005345542061
:102E100054494D45204F4B0D0A000000414C415292
:102E20004D0000001400002053455420414C4152F5
:102E30004D204F4B0D0A0000444953504C4159005E
:102E40004F4E00004F4646005345542044495350CE
:102E50004C4159204F4B0D0A00000000464F524D87
:102E6000415400004C454654000000005249474878
:102E70005400000053455420464F524D4154204FBA
:102E80004B0D0A004552524F523A20496E76616C02
:102E900069642053455420636F6D6D616E640D0A43
:102EA000000000002A4745540000000044415445FA
:102EB0003A20253034642E253032642E2530326499
:102EC0000D0A000054494D453A20253032643A2518
:102ED0003032643A253032640D0A0000414C4152D0
:102EE0004D3A20253032643A253032643A2530326A
:102EF000640D0A00444953504C41593A204F46460C
:102F00000D0A0000444953504C41593A204F4E0D90
:102F10000A000000464F524D41543A204C45465459
:102F20000D0A0000464F524D41543A20524947483D
:102F3000540D0A004552524F523A20496E76616C48
:102F400069642047455420636F6D6D616E640D0A9E
:102F5000000000004552524F523A20556E6B6E6F82
:102F6000776E20636F6D6D616E640D0A0000000066
:102F7000FDF76CFE23E0FEF76FF800212220FEF73C
:102F800013FA0F49087008460078C043C2B2012105
:102F90001820FEF749FA0B48007808B1FEF77EFBCF
:102FA0000948007808B1FEF719FB0848007808B115
:102FB000FEF7BCFB0648007808B1FEF787FBDAE7AE
:102FC0003E00002038000020390000203A00002098
:102FD0003B00002070B5DDE90456069C2080A170FE
:102FE000E27023716571A67170BD00210AE0425C38
:102FF000612A05DB425C7A2A02DC425C203A4254B8
:103000004A1CD1B2425C002AF1D1704710B5044687
:10301000A0793C2804DB0020A0716079401C60711D
:1030200060793C2804DB002060712079401C20710D
:103030002079182804DB00202071E078401CE07023
:10304000A1782088FFF78EFCE178884204DA01201D
:10305000E070A078401CA070A0780C2804DD01204E
:10306000A0702088401C208010BD000010B50029F1
:103070000AD00878002807D005487844FDF79AFB65
:10308000002801D0002010BD0248784410BD000087
:10309000E6050000DE0500004FF04070E1EE100A8A
:1030A0007047000000400040100000000080054014
:1030B000100000000050004011000000009005408A
:1030C00011000000006000401200000000A0054058
:1030D00012000000007000401300000000B0054026
:1030E00013000000004002401400000000C0054032
:1030F00014000000005002402E00000000D00540E7
:103100002E000000006002402F00000000E005409B
:103110002F000000007002403000000000F0054069
:103120003000000000D003404600000000000640D0
:103130004600000000100640470000000020064046
:1031400048000000003006407F00000000400640BC
:10315000800000000050064084000000006006402F
:103160008C0000000040004010000000008005407E
:1031700010000000005000401100000000900540C9
:1031800011000000006000401200000000A0054097
:1031900012000000007000401300000000B0054065
:1031A00013000000004002401400000000C0054071
:1031B00014000000005002402E00000000D0054026
:1031C0002E000000006002402F00000000E00540DB
:1031D0002F000000007002403000000000F00540A9
:1031E0003000000000D00340430000000000064013
:1031F000430000000010064044000000002006408C
:103200004500000000300640580000000040064025
:1032100059000000005006405C00000000600640BD
:1032200064000000007006406C0000000080064052
:103230006D000000009006407F000000004000404C
:1032400000800540005000400090054000600040B4
:1032500000A005400070004000B005400040024062
:1032600000C005400050024000D005400060024010
:1032700000E005400070024000F0054000D003402F
:1032800000000640001006400010064000200640E6
:103290000020064000300640003006400040064056
:1032A00000400640005006400050064000600640C6
:1032B0000060064000700640007006400080064036
:1032C0000080064000900640009006400007000085
:1032D00000060000000500000004000000030000DC
:1032E00000020000000100000000000000000000DB
:1032F00018ED00E01CED00E020ED00E000E400E04F
:1033000004E400E008E400E00CE400E010E400E085
:1033100014E400E018E400E01CE400E020E400E035
:1033200024E400E028E400E02CE400E030E400E0E5
:1033300034E400E038E400E03CE400E040E400E095
:1033400044E400E048E400E04CE400E050E400E045
:1033500054E400E058E400E05CE400E060E400E0F5
:1033600064E400E068E400E06CE400E070E400E0A5
:1033700074E400E078E400E07CE400E080E400E055
:1033800084E400E088E400E000E100E004E100E023
:1033900008E100E00CE100E010E100E080E100E085
:1033A00084E100E088E100E08CE100E090E100E0F1
:1033B00000E200E004E200E008E200E00CE200E0ED
:1033C00010E200E080E200E084E200E088E200E059
:1033D0008CE200E090E200E000688909001C4E0EDB
:1033E00040420F0000201C0080841E000080250049
:1033F000999E36000040380000093D0000803E00E4
:1034000000004B00404B4C0000204E00808D5B00C4
:1034100000C05D000080700000127A0000007D0096
:1034200080969800001BB7000080BB00C0E8CE006B
:10343000647ADA000024F4000000FA0080A8120187
:10344000002D310100366E0140787D014000000002
:1034500000000000000100003E0008000000000025
:1034600000010000A00000000200000000010000B8
:103470003454010000000000000100002B70060021
:103480000000000000010000280000000000000013
:103490000001000027000100000000000001000002
:1034A00020000000000000000001000050000000AB
:1034B00002000000000100001AAC00000000000043
:1034C0000001000017940900000000000001000046
:1034D0001698050000000000000100001400000024
:1034E0000000000000010000138008000000000040
:1034F00000010000A0000000080000000001000022
:103500001000000000000000000100002800000082
:103510000200000000010000400000000400000064
:103520000001000060000000000000000001000039
:103530005D000C00000000000001000050000000D1
:1035400000000000000100004E000200000000002A
:103550000001000041AC010000000000000100007B
:103560003C00000000000000000100003A8009005B
:10357000000000000001000030000000000000001A
:103580000001000028000000000000000001000011
:103590002700010000000000000100002360060079
:1035A0000000000000010000216008000000000091
:1035B000000100001E0000000000000000010000EB
:1035C0001DC00400000000000001000050000000C9
:1035D00002000000000100001800000000000000D0
:1035E00000010000140000000000000000010000C5
:1035F0006000000004000000000100000024F4004E
:1036000030003000005A620291009100008793035D
:10361000D200D20000B4C4041301130100E1F50587
:1036200054015401000E270795019501040000087C
:103630000000000000000002000100001000000077
:103640007037000000000020BC0000003C020000B9
:103650002C380000BC000020740400005802000058
:103660001001000043000000F8FFFFFF0040404051
:103670004040404040404141414141404040404045
:1036800040404040404040404040404040050202F1
:1036900002020202020202020202020202202020B0
:1036A000202020202020200202020202020290900C
:1036B000909090901010101010101010101010100A
:1036C000101010101010101002020202020288885E
:1036D000888888880808080808080808080808086A
:1036E0000808080808080808020202024000000052
:1036F00000000000000000000000000000000000CA
:1037000000000000000000000000000000000000B9
:1037100000000000000000000000000000000000A9
:103720000000000000000000000000000000000099
:103730000000000000000000000000000000000089
:103740000000000000000000000000000000000079
:103750000000000000000000000000000000000069
:103760000000000000000000000000000000000059
:1037700000000000E803FF0000000100E9070C0C56
:103780000C0C1E00000000000C0C280000000000C3
:103790000000000000000000000000000000000029
:1037A0000000000000000000000000000000000019
:1037B0000000013F065B4F666D7D077F6F777C39A8
:1037C0005E79715C00000000000000000101010151
:1037D0000101010100323032352D30352D323620D5
:1037E00031363A34383A3030200000000000000012
:1037F000000000000031363A34383A303000000022
:103800000000000000323032352D30352D323600C8
:1038100000000000003F065B4F666D7D070102005F
:0C382000000000000024F4000000000084
:0400000500000201F4
:00000001FF
